:020000040800F2
:10000000C004002049010008A9140008710D00086F
:1000100089130008750A0008F91D00080000000097
:100020000000000000000000000000002F17000882
:10003000070C00080000000011150008E517000873
:100040006301000863010008630100086301000800
:1000500063010008630100086301000863010008F0
:1000600063010008630100086301000863010008E0
:1000700063010008630100086301000863010008D0
:1000800063010008630100086301000863010008C0
:1000900063010008630100086301000863010008B0
:1000A00063010008630100086301000863010008A0
:1000B0006301000863010008630100086301000890
:1000C0006301000863010008630100086301000880
:1000D00063010008611C0008630100086301000857
:1000E000410C000863010008630100086301000877
:1000F0006301000863010008630100086301000850
:10010000630100086301000863010008630100083F
:100110006301000863010008391800086301000842
:10012000630100086301000863010008630100081F
:10013000DFF810D000F030FB00480047012900082C
:10014000AFF30080C00400200648804706480047FF
:10015000FEE7FEE7FEE7FEE7FEE7FEE7FEE7FEE777
:10016000FEE7FEE7E917000831010008F0B480EA75
:100170000102D40F4200B2EB410F02D20246084600
:1001800011464A0042D0C30DDDB2C1F3C752AD1AC9
:10019000202D35DAC1F3160141F4000204B15242B8
:1001A000C5F1200602FA06F12A411044B3EBD05FF4
:1001B00023D0C4B1012DA0EBC35009DCF0BC4FF03B
:1001C000004202EAC352DBB200F5000000F0FEB8C4
:1001D000400000F1807000EBC350A0F1807040EA55
:1001E000D170490009E0490841EAC071A0EBC35051
:1001F00000F50000400800EBC350F0BC00F0DDB893
:100200006142012202EB4101001BF6E7F0BC70479E
:1002100081F00041AAE780F00040A7E780EA0102F0
:1002200010B502F00043400022D04A001FD0010E5A
:1002300001EB1261C0F35600C2F3560240F4000015
:1002400042F40002A0FB022000047F39140400D015
:10025000401C50EA124001D44000491EC2B20C06B4
:1002600004EBD010401C4008802A02D003E000209C
:1002700010BD20F00100002900DA0020184310BD55
:1002800030B480EA010202F0004530F0004221F073
:10029000004013D090B1C30DD40DC2F31601C0F3CA
:1002A0001600E41A41F4000140F400027D3491424A
:1002B00001D3641C00E04900002C02DA30BC0020AD
:1002C00070474FF400000023914201D3891A034381
:1002D00040084FEA4101F7D151B1914202D14FF0AC
:1002E000004105E002D24FF0010101E06FF0010191
:1002F00003EBC450284430BC00F05FB896230022C2
:10030000114600F063B800F0004230F000400AD01F
:10031000C10D01F56071C0F3160042EA0151C20837
:1003200040071143704700200146704730B50B4627
:10033000014600202022012409E021FA02F59D4215
:1003400005D303FA02F5491B04FA02F52844151EE9
:10035000A2F10102F1DC30BD2DE9F05F054600207D
:1003600092469B4688460646814640241BE0284626
:1003700041464746224600F030FA53465A46C01AD4
:10038000914110D311461846224600F017FA2D1A53
:1003900067EB01084F4622460120002100F00EFACB
:1003A00017EB00094E41201EA4F10104DFDC484692
:1003B00031462A464346BDE8F09F0029A8BF704752
:1003C000401C490008BF20F00100704710B4B0FA8B
:1003D00080FC00FA0CF050EA010404BF10BC704726
:1003E00049B1CCF1200421FA04F411FA0CF118BF40
:1003F000012121430843A3EB0C01CB1D4FEA00610F
:100400004FEA102042BF002010BC704700EBC350E1
:1004100010440029A4BF10BC7047401C490008BF0D
:1004200020F0010010BC70472DE9FE4F804681EAA4
:100430000300C00F0C46009021F0004123F000455E
:10044000B8EB0200A94105D24046214690461C4621
:100450000B46024623F00040104347D0270DC7F358
:100460000A00C3F30A510290401A019040286BDA47
:10047000C3F3130040F4801B0098924620B1002380
:10048000D2EB030A63EB0B0B01985946C0F1400213
:10049000504600F093F906460D4650465946019ADB
:1004A00000F0ABF910EB08006141002487EA11521B
:1004B00084EAE7731A4340D0009A62B3019A012A92
:1004C0004FEA075215DC001B61EB02014FF00042BE
:1004D00002EA0752CDE90042001C41F58011324684
:1004E0002B4600F0ABF903B0BDE8F08F4046214643
:1004F000F9E7001B61EB0201001C41F580130018B5
:100500005B412018A2F5001747EB030140EAD570C4
:10051000B6196D4111E06D084FEA360645EAC0751F
:100520004FEA0752001B61EB0201001C41F58011EC
:1005300049084FEA30000019514132462B4603B0BA
:10054000BDE8F04F00F06BB9009801224000002395
:10055000D0EB020263EBE073009821464FEAE074AF
:10056000B8EB000061EB0401E9E783F000435BE7CF
:1005700081F0004158E72DE9FE4F81EA030404F0C1
:10058000004421F0004100944FF0000B23F00043A1
:1005900050EA01045ED052EA03045BD0C3F30A546C
:1005A000C1F30A552C44A4F2F3340194A0FB025485
:1005B000C1F3130141F48011C3F3130343F4801317
:1005C00001FB024400FB034E840A970A44EA81546B
:1005D00047EA8357A4FB076802958D0A05FB078548
:1005E0004FEA932C04FB0C542705029D4FEA065852
:1005F00047EA1637B5EB08056EEB070C870E920E2F
:1006000047EA811742EA8312A7FB0201B6EB0B010E
:1006100064EB00042B0D43EA0C335E1844EB1C50D2
:10062000DA465146E7FB0201C5F313044FEA0B33E8
:1006300043EA14534FEA0432019C43EA0603A4F14F
:100640000C040294009CCDE900B400F0F7F803B06C
:10065000BDE8F08F00200146F9E72DE9F04D81EA71
:10066000030404F0004B21F0004514464FF0000A4B
:1006700023F0004150EA050220D054EA01021DD0C7
:10068000C5F30A570246C5F31303C1F31300C1F3C0
:100690000A5640F4801543F48013A7EB0608101B9C
:1006A000D64608F2FD3873EB050002D308F10108C5
:1006B00001E092185B41B8F1000F03DA0020014617
:1006C000BDE8F08D00204FF48011064684460EE010
:1006D000171B73EB050705D3121B63EB05030643DA
:1006E0004CEA010C49084FEA300092185B4150EA8D
:1006F0000107EDD152EA030012D082EA040083EA36
:100700000501084305D0101BAB4106D2012200238E
:1007100006E000224FF0004302E06FF001025310A8
:100720001AEB06004CEB085110EB0A0041EB0B01F1
:10073000BDE8F04D00F073B8C1F30A52C1F31301E4
:1007400040F2FF3341F480119A4202DA0020014660
:10075000704740F233439A42A2F2334202DC5242E3
:1007600000F03BB800F02AB830B5041E71F1000467
:1007700004DB4FF00044404264EB0101141E73F1AE
:10078000000405DB1C464FF00043524263EB0403B8
:10079000994208BF904230BD064C074D06E0E06824
:1007A00040F0010394E8070098471034AC42F6D3B8
:1007B000FFF7C2FCCC980008EC980008202A04DB64
:1007C000203A00FA02F1002070479140C2F1200364
:1007D00020FA03F3194390407047202A04DB203AA3
:1007E00021FA02F00021704721FA02F3D040C2F151
:1007F00020029140084319467047202A06DBCB1798
:10080000203A41FA02F043EAE07306E041FA02F3CB
:10081000D040C2F12002914008431946704710B5FC
:10082000141E73F1000408DA401C41F10001921813
:100830005B411A4301D120F0010010BD2DE9F04DBC
:1008400092469B4611B1B1FA81F202E0B0FA80F211
:1008500020329046FFF7B2FF04460F4640EA0A00F6
:1008600041EA0B0153465A46084313D0114653EA56
:10087000010019D0C8F140025046FFF7AEFF05460F
:100880000E46504659464246FFF798FF084305D0AA
:10089000012004E020463946BDE8F08D00200543E4
:1008A00046EAE0762C4337430A986305E40AA0EB56
:1008B00008000022FD0A44EA47540A3002D500200D
:1008C0000146E9E7010510196941DDE9084500190C
:1008D0006941BDE8F04DA2E7002904D0816841F0EC
:1008E000010181607047816821F0010181607047DA
:1008F000002904D0816841F480718160704781686B
:1009000021F48071816070470146002089684907A1
:1009100000D501207047014600208968090700D5ED
:10092000012070472DE9F0410A26144D002028606F
:100930000024134F0BE07888FFF7E0FC2968FFF7ED
:1009400015FC28600A2000F06BF9641CE4B2B44284
:10095000F1D33046FFF7D2FC01462868FFF790FC40
:100960000849FFF75BFC0849FFF78AFC28603888D4
:10097000FFF7C4FC6860BDE8F0810000A40000201F
:100980002C0000203333534000F07F4510B54268FF
:100990000E4B1A400C790B6842EA04221343436061
:1009A00082680B4B1A40D1E9024323434C7942EA57
:1009B000440213438360C26A22F47002097C491E18
:1009C000C9B242EA0151C16210BD0000FFFEF0FF52
:1009D000FDF7F1FF70B5072609290AD9C568A1F10D
:1009E0000A0404EB4404A640B543A3401D43C5607C
:1009F00007E0056901EB4104A640B543A3401D4350
:100A000005611F23072A09D2446B521E02EB8202A2
:100A100093409C4391400C43446370BD0D2A09D21E
:100A2000046BD21F02EB820293409C4391400C4323
:100A3000046370BDC46A0D3A02EB820293409C438A
:100A400091400C43C46270BD816841F0080181602F
:100A50007047002904D0816841F4A001816070478B
:100A6000816821F4A00181607047816841F0040130
:100A700081607047FEE70000C10002D502490860AE
:100A80007047024948607047040402400000024079
:100A9000002904D0016841F001010160704701683C
:100AA0004FF6FE72114001607047000001684FF67A
:100AB000FE72114001600021016041608160C160EF
:100AC0003649364A0839904204D1486840F00F0050
:100AD00048607047314A1432904204D1486840F06F
:100AE000F000486070472D4A2832904204D148688F
:100AF00040F4706048607047284A3C32904204D10C
:100B0000486840F4704048607047244A5032904230
:100B100004D1486840F47020486070471F4A64322E
:100B2000904204D1486840F47000486070471B4A06
:100B30007832904204D1486840F070604860704755
:100B4000174A111F904204D1086840F00F00086056
:100B50007047134A1432904204D1086840F0F00004
:100B6000086070470E4A2832904204D1086840F469
:100B70007060086070470A4A3C32904204D10868AD
:100B800040F4704008607047054A50329042FAD1F4
:100B9000086840F4702008607047000008000240B8
:100BA0000804024002460020D10002D50449096829
:100BB00001E004490968114200D00120704700009B
:100BC000000402400000024030B5026847F6F073AE
:100BD0009A430C6A8B682343D1E904452C43234391
:100BE0008C692343CC6923434C6A23438C6A234397
:100BF00013430360CA6842600A6882604968C16042
:100C000030BD41607047704700B502464FF47A73BB
:100C100002E0184600F004F8521E501CF9D100BD45
:100C200000EBC000C1004FF0E02041610021816174
:100C3000052101610169C903FCD5042101617047E7
:100C400070B54FF40064204600F024F86500A6005B
:100C500040B9284600F01EF820B9304600F01AF8D6
:100C600001280DD107A001F0C9F8204600F00CF8CA
:100C7000284600F009F83046BDE8704000F004B89E
:100C800070BD00000D0A3100014908607047000086
:100C90001404014001460020054A12680A40044B32
:100CA00014331B680B4202D0002A00D00120704789
:100CB000000401402DE9F0410022CC7804F00F033C
:100CC000E40601D58C7823430C784FF00F0714F01D
:100CD000FF0F4FF0010C1CD005680CFA02F40E88CF
:100CE0002640A64211D1960007FA06F825EA080523
:100CF00003FA06F848EA0505CE78282E02D0482ED9
:100D000002D002E0446100E00461521C082AE4D3EE
:100D100005600A88FF2A1ED94568002202F10806EC
:100D20000CFA06F40E882640A64210D1960007FA67
:100D300006F825EA080503FA06F848EA0505CE781C
:100D4000282E00D14461CE78482E00D10461521C77
:100D5000082AE3D34560BDE8F0810246002092688E
:100D60000A4200D00120704741617047016170471D
:100D7000FEE72DE9F04105460E4614461F462A209F
:100D800000F092FA1435A8B200F081FA1434A0B23F
:100D900000F07DFA2B2000F087FA304600F077FA59
:100DA000384600F074FABDE8F0412C2000F07CBA1F
:100DB00008B50020F0234FF48C720146009000F03B
:100DC0000DF808BD10B514460B460246FFF7D1FFDB
:100DD0002046BDE8104000F05ABA00002DE9F84F57
:100DE0000A9C01250094141A5E1A74435B1E521E5D
:100DF0009BB292B2FFF7BDFFDFF89C9020214846DE
:100E0000FFF7B2FFDFF894804046B8F8001041F4D5
:100E10000061A8F80010012100F04EFC4FF6FE76AC
:100E20006F0221E03046844203D9A4F57F44FE3CA2
:100E300001E0002520461949DFF864A083B26A4624
:100E40000C31504600F062FA01220221404600F0C7
:100E50003FFC504600F082FA3846FFF7A3FE002818
:100E6000FAD03846FFF708FE002DDBD12021484696
:100E7000FFF77CFFB8F800104046C943A8F80010FF
:100E8000018841F4006101800188C943018001218A
:100E900000F012FCBDE8F88F00180140003001405E
:100EA00030000240F8B50121442000F059FB5020E9
:100EB000ADF8000010258DF8035003248DF8024092
:100EC0000C4E69463046FFF7F5FE50213046FFF7DD
:100ED0004DFF6020ADF800008DF803508DF8024002
:100EE000054C69462046FFF7E5FE60212046FFF7E6
:100EF0003DFFF8BD000801400018014010B500F0AA
:100F000093FBFFF7CFFF644C40212046FFF72CFFF7
:100F10006420FFF779FE40212046FFF727FF642079
:100F2000FFF772FE40215D48FFF720FF6420FFF7C6
:100F30006BFE112000F0B8F97820FFF765FE36202F
:100F400000F0B2F9702000F0ACF93A2000F0ACF9F2
:100F5000052000F0A6F9B22000F0A6F90C2000F060
:100F6000A0F90C2000F09DF9002000F09AF9332040
:100F700000F097F9332000F094F9B72000F094F9CD
:100F8000352000F08EF9BB2000F08EF9322000F001
:100F900088F9C22000F088F9012000F082F9C3200E
:100FA00000F082F9152000F07CF9C42000F07CF9F3
:100FB000202000F076F9C62000F076F90F2000F02E
:100FC00070F9D02000F070F9A42000F06AF9A12097
:100FD00000F067F9E02000F067F9D02000F061F937
:100FE000082000F05EF90E2000F05BF9092000F007
:100FF00058F9092000F055F9052000F052F9312088
:1010000000F04FF9332000F04CF9482000F049F986
:10101000172000F046F9142000F043F9152000F0E5
:1010200040F9312000F03DF9342000F03AF9E12098
:1010300000F03AF9D02000F034F9082000F031F93E
:101040000E2000F02EF9092000F02BF9092000F005
:1010500028F9152000F025F9312000F022F933207D
:1010600000F01FF9482000F01CF9172000F019F9D2
:10107000142000F016F9152000F013F9312000F0CB
:1010800010F9342000F00DF9212000F00DF9BDE831
:101090001040292000F008B9000801400018014064
:1010A0002DE9FF4F83B00746DDF844804FF000097B
:1010B00001974FEA580B5FEA4B7001D0012000E026
:1010C000002000EBDB0000FB08F00290203A02F069
:1010D000FF0A049804994044401E83B207EB0B00BA
:1010E000401E82B23846FFF744FE00245EE0B8F1AD
:1010F0000C0F29D0B8F1100F2DD0B8F1180F2FD048
:10110000B8F1200F33D0B8F1300F52D12C490AEB8F
:10111000CA0001EB0010065D0025129860B30120A3
:10112000A840304204D03846069A0499FFF74AFE98
:101130007F1CBFB20198381A584531D1019F0498DD
:10114000401C80B204902FE01E490AEB4A0001EBDC
:101150008000065DE0E71C4800EB0A10065DDBE757
:101160001A490AEB4A0001EB0010065DD4E7184863
:1011700000EB8A10065DCFE70120A840304203D083
:10118000069800F084F802E0109800F080F809F169
:10119000010909F0FF09B9FBFBF00BFB109058B1F6
:1011A0006D1CEDB2082DB8D3641CA4B20298844221
:1011B0009DD307B0BDE8F08F4FF00009F4E70000C1
:1011C0001B5E0008272A00089B2E00088B340008AD
:1011D0005B4600082DE9FF4F83B08146DDE911A68B
:1011E0001D4600274FEA56080024A34622E0281B8C
:1011F000401EC1B20A2001F0B3FB0599B1FBF0F02B
:101200000A21B0FBF1F201FB120027B9691E8C42E2
:1012100001DAA0B10127CDE9016B3030C2B204FB85
:10122000089080B2CDF800A0109B0499FFF738FF1A
:10123000641CE4B2AC42DAD307B0BDE8F08FCDE96C
:10124000016B04FB089080B2CDF800A02022109B17
:101250000499FFF725FFEBE72DE9FE4F0546DDE991
:101260000D68894614469A460C9F0BE0CDE901684B
:101270005346494628460097FFF712FF05EB5600F4
:1012800085B2641C2278002AF0D1BDE8FE8F10B52B
:101290000446200A00F01AF8E0B2BDE8104000F061
:1012A00015B800F013B8000070B50546064C1021C3
:1012B0002046FFF759FD284600F008F82046BDE813
:1012C00070401021FFF752BD0008014070B506467E
:1012D0000C4C20212046FFF747FD0B4D02212846EC
:1012E00000F000FA0028F9D03146284600F001FA53
:1012F000012001F079FA2046BDE870402021FFF777
:1013000035BD00000018014000300140F0B58BB041
:1013100007460D4616461C460121084600F004F912
:101320003846FFF7C3FB0C48048000950196102057
:101330000290039400210491059100010690800021
:1013400007900891800009900A9169463846FFF796
:101350003BFC0BB0F0BD00003000002010B504468F
:1013600000212046FFF794FB054906480988FFF74E
:1013700048FC2046BDE810400121FFF789BB000072
:101380003000002030000240FEE7000004480178F1
:10139000002902D0002101707047012101707047BF
:1013A0003C0000204169002909D0054B18611A78DA
:1013B000C2EBC20201EB8201D9604068004770476E
:1013C0003C00002010B5054C2069002804D0E068DE
:1013D000406880472069E06010BD00003C000020AC
:1013E00010B5002806D0012807D0022808D003280D
:1013F0000CD109E000F012F808E0FFF7C7FF05E0A4
:101400000548FFF7CFFF01E0FFF7DCFF0249FF20AF
:101410001439487010BD00005000002004490878BD
:10142000002802D0401E08707047012008707047E5
:101430003C0000202DE9FE4305466869002820D0C5
:101440000024002630274FF06F0847F6FF7913E09D
:10145000CDE9006702966869C4EBC4014B4650F8B9
:10146000212004EB840000EBC40008EB800081B273
:101470003420FFF7F1FE641C287EA042E8DCBDE8C2
:10148000FE8305A0296800F0B9FCE8680028F6D0C2
:1014900003B0BDE8F0430047D6B4D0D0B9A6C4DC51
:1014A0002025730D0A0000007047000070B50F235F
:1014B000C27801260178002A1ED0144A126802F46C
:1014C000E062C2F5E062120AC2F10404D34045783A
:1014D000A54082781A402A43120101F1E02181F8E7
:1014E0000024007800F01F018E404009800000F1C8
:1014F000E020C0F8006170BD01F01F00864048097F
:10150000800000F1E020C0F8806170BD0CED00E0CB
:1015100070470000034A516821F440410143516083
:101520007047000000100240054A002903D05169AD
:101530000143516170475169814351617047000017
:1015400000100240054A002903D0D1690143D1614E
:101550007047D1698143D16170470000001002409B
:10156000054A002903D0916901439161704791694F
:1015700081439161704700000010024010B5264A77
:10158000516801F00C01254B002927D0042927D0F0
:10159000082927D00360516801F0F0010909204BA8
:1015A0005C5C0168E1404160546804F4E064240A32
:1015B0001C5D21FA04F48460546804F46054E40A65
:1015C0001B5DD940C160526802F44042920B144B3B
:1015D0001B1F9A5CB1FBF2F1016110BD0360DAE7F9
:1015E0000360D8E7516801F47011536803F4803345
:1015F000022404EB914133B153689B0307D5094B97
:1016000059430160C7E7074B59430160C3E7034BE8
:1016100059430160BFE700000010024000127A0049
:101620000400002000093D0010B586B00121080328
:10163000FFF796FF01210420FFF792FFA020ADF8ED
:10164000140003208DF8160018208DF81700184C90
:1016500005A92046FFF72EFBA0212046FFF786FBB9
:101660004FF44040ADF800004FF48270ADF8020036
:101670000020ADF804000221ADF806100121ADF8FC
:1016800008104902ADF80A100821ADF80C10ADF8A9
:101690000E000720ADF81000064C6946204600F009
:1016A0002AF80121204600F007F806B010BD00001E
:1016B0000008014000300140002904D0018841F0B9
:1016C000400101807047018821F04001018070478E
:1016D000002A03D082880A438280704782888A4326
:1016E000828070470246002012890A4200D0012001
:1016F00070478181704730B5028802F441530A88EF
:101700004C88CD8822438C882C4322430C89224369
:101710004C8922438C892243CC8922431A4302807C
:10172000828B22F400628283098A018230BD704775
:10173000AFF300800CB500220192009227480168A7
:1017400041F4803101604FF4A063016801F400317D
:1017500000910199491C0191009911B9019999428F
:10176000F3D10168890302D50121009100E00092C4
:101770000099012930D11A490A6842F010020A6022
:101780000A6822F003020A600A6842F002020A6054
:101790004168416041684160416841F48061416055
:1017A000416821F47C114160416841F4E8114160D5
:1017B000016841F08071016001688901FCD54168D0
:1017C00021F003014160416841F00201416041683C
:1017D000C1F381010229FAD10CBD000000100240C2
:1017E000002002407047000010B50F48016841F02A
:1017F0000101016041680D4A1140416001680C4AD5
:1018000011400160016821F480210160416821F4E8
:10181000FE0141604FF41F018160FFF789FF054918
:101820004FF00060086010BD001002400000FFF89B
:10183000FFFFF6FE08ED00E010B5134C0121204635
:1018400000F071F800281ED00121204600F05CF85D
:1018500000F0F4FF002801DB0C4948700C490888AF
:10186000401C80B2088064280DD300200880094CF9
:1018700009492068FEF7D2FCA168FEF777FCA0605A
:10188000E068401CE06010BD001000403C000020FB
:1018900014000020B0000020439891397FB5044621
:1018A00001211020FFF74EFE04EB84004FF0FF31C2
:1018B00001EB4000ADF8080041F61F40ADF8040010
:1018C0000024ADF80A40ADF806400E4D01A92846A7
:1018D00000F040F801221146284600F030F8362189
:1018E0008DF800108DF8014003218DF802100121C0
:1018F0008DF803106846FFF7D9FD0121284600F056
:1019000006F87FBD00100040C943018270470029DE
:1019100004D0018841F0010101807047018821F065
:1019200001010180704702460020138A0B40928912
:101930000A40002B02D0002A00D001207047002A64
:1019400003D082890A438281704782898A438281D7
:101950007047000030B502881B4C1C4DA0420DD0D2
:10196000A8420BD0B0F1804F08D0194B984205D057
:10197000184B984202D0184B984203D122F07003C2
:101980004A881A43154B984206D0154B984203D00B
:1019900022F44073CA881A4302808A8882850A88A2
:1019A0000285A0420AD0A84208D00E4A904205D033
:1019B0000D4A904202D00D4A904201D1097A018627
:1019C0000121818230BD0000002C01400034014023
:1019D0000004004000080040000C004000100040DF
:1019E0000014004000400140004401400048014014
:1019F00008B506490020487000210090F0234FF4FC
:101A00008C720846FFF7EAF908BD00003400002098
:101A100038B50024F0234FF48C7221462046009400
:101A2000FFF7DCF9024801214170047038BD000065
:101A3000340000202DE9F041C4B0FEF773FF734E6F
:101A40007068FEF760FC02460B4671A104A800F026
:101A5000E5F900243027CDE9004747F6FF7304AAD3
:101A6000042134200294FFF7F7FB6B4970684AF2B7
:101A70005165884212DB3068FEF745FC02460B4692
:101A800066A104A800F0CAF9CDE900472B4604AAD4
:101A9000302134200294FFF7DFFB11E03068FEF7BD
:101AA00032FC02460B4660A104A800F0B7F9CDE96C
:101AB00000472B4604AA302134200294FFF7CCFBC8
:101AC000D6E90001FEF7AAFB594D2860FEF71BFC82
:101AD00002460B4657A104A800F0A0F9CDE9004743
:101AE0004FF6074304AA602134200294FFF7B4FBA9
:101AF000A868FEF708FC02460B4650A104A800F0B7
:101B00008DF92027CDE9004742F6123304AA9A2125
:101B100004200294FFF7A0FB4A49A868FEF77EFB69
:101B20007168FEF7ADFB48494860FEF7ECFB0246E2
:101B30000B4646A104A800F071F9CDE9004748F230
:101B40001F4304AABA2104200294FFF785FBB06862
:101B5000FEF7D9FB02460B463EA104A800F05EF951
:101B6000CDE900474FF4784304AA9A21A0200294BB
:101B7000FFF772FBCDE900474FF6FF78BA214346E5
:101B800036A2B0200294FFF767FBCDE90047BA21E7
:101B9000434632A2E0200294FFF75EFBE8684FF470
:101BA0006161B0FBF1F0CDE9008482B2BA21022379
:101BB00090200297FFF70EFBE8683C26B0FBF6F09A
:101BC000B0FBF6F106FB1102CDE90084BA21022335
:101BD000C0200297FFF7FEFAE868CDE90084B0FB69
:101BE000F6F106FB1102BA210223F0200297FFF75B
:101BF000F1FA4CF2186000909523FA0092211C2013
:101C0000FFF7ECF844B0BDE8F0810000A40000202C
:101C10007620252E326620000000204161202025FC
:101C20002E326620000000006120252E3266200042
:101C3000B00000207720252E32662000252E326647
:101C40005768000000007A4434000020252E3066DA
:101C50006D410000252E3266282900003A00000060
:101C600070B50A4C40F225552946204600F026F86A
:101C700001280AD1204600F0BBF8054A1080294609
:101C80002046BDE8704000F005B870BD0038014046
:101C90002400002040F66A120A0A01219140C9433B
:101CA00001807047002904D0818941F4005181816D
:101CB0007047818921F400518181704770B50024FB
:101CC00040F66A12C1F3421301F01F05012606FA1D
:101CD00005F2012B0CD0022B0DD0838A1340090A88
:101CE0008E40008830400BB100B10124204670BD09
:101CF00083891340F3E7038A1340F0E710B540F6F9
:101D00006A13C1F3421301F01F040121A140012B0A
:101D100007D0022B07D014303AB102680A430260A0
:101D200010BD0C30F8E71030F6E702688A43026015
:101D300010BD000030B585B004460D46208A4CF633
:101D4000FF710840E98801432182A0894EF6F31112
:101D50000840A9882A8911436A8902431143A18155
:101D6000A08A4FF6FF410840A9890143A182684635
:101D7000FFF704FC1D48844201D1039800E002985B
:101D8000A189090408D500EBC00101EB0010296806
:101D90004900B0FBF1F007E000EBC00101EB0010DF
:101DA00029688900B0FBF1F06422B0FBF2F109016F
:101DB0000B096FF018056B4300EB8300A3891D042A
:101DC0004FF0320307D503EBC000B0FBF2F000F098
:101DD0000700084306E003EB0010B0FBF2F000F050
:101DE0000F000843208105B030BD000000380140DD
:101DF0008088C0F308007047FEE700000FB4054B71
:101E000010B503A9044A029800F0EEF810BC5DF882
:101E100014FB0000F1270008280000200FB4084B35
:101E200010B504A902AA039800F0DEF8044602A93E
:101E3000002000F05CFC204610BC5DF814FB0000A4
:101E4000EF26000802E008C8121F08C1002AFAD1D4
:101E500070477047002001E001C1121F002AFBD12A
:101E6000704700002DE9FF5F82B00021DDE90430FA
:101E7000020DDDF840B0034318D044F61050A2F232
:101E8000FF3242431514119801281FD0A5EB0B0017
:101E9000401C5FEA000A4FF000064E4FDFF8389111
:101EA000B046504615D5CAF1000413E0119801243C
:101EB0004AA3012801D16FEA0B010298119AC0E9E7
:101EC0000031C0E9024206B0BDE8F09FCBF100004E
:101ED000DFE704460021404A491842EB0450CDE9AF
:101EE000001012E0E00707D032463B464046494624
:101EF000FEF741FB8046894632463B46104619466E
:101F0000FEF739FB06460F466410002CEAD1DDE9E6
:101F10000401DDE90023BAF1000F06DAFEF72BFB1E
:101F200042464B46FEF727FB05E0FEF796FB42468E
:101F30004B46FEF792FB04460E460022284BFEF766
:101F400013FC03D84FF0FF30014607E00022254B79
:101F500020463146FEF768FAFEF7EEFB102409E052
:101F6000002C0ADB0A220023FEF7F6F9039B30322D
:101F70001A55641E50EA0102F2D1641C039AC4F19E
:101F800011031444119A012A03D0012208430DD1F0
:101F90000AE0084304D000204FF0110B119072E7C3
:101FA000A3EB0B056D1E0DE05B4504DD4FF0000259
:101FB00005F1010504E003DA4FF00002A5F1010587
:101FC000002AECD002981199C0E90231C0E900451D
:101FD00079E70000000014400000F03F30000000EE
:101FE0000000F0430000E03F2DE9FF4F95B09A4616
:101FF000884606460025EEE1252877D100242746AD
:10200000F94A0121039400E0044316F8013F203B04
:1020100001FA03F01042F7D130782A2811D06FF07E
:102020002F033078A0F13002092A16D8039A44F021
:10203000020402EB820203EB42021044761C03907E
:10204000EFE758F8042B0392002A03DA504244F4D5
:102050000054039044F00204761C30782E2816D1E8
:1020600016F8010F44F004042A280DD06FF02F0257
:102070003078A0F13003092B09D807EB870302EB76
:102080004303C718761CF3E758F8047B761C3078B6
:102090006C280FD006DC4C2817D068280DD06A2891
:1020A00014D104E0742810D07A280FD10DE044F444
:1020B00000140AE044F4801401E044F440147278FF
:1020C000824202D104F58014761C761C3078662892
:1020D0000BD013DC582877D009DC002875D04528B0
:1020E000F6D04628F4D047281AD193E118E06328A7
:1020F00035D0642879D0652812D18BE1702873D04F
:1021000008DC6728F1D069286FD06E280DD06F28C1
:1021100006D1ACE073282CD0752874D0782853D021
:102120005246179990476D1C54E1C4F3025002289F
:1021300009D003280DD0D8F8001004280DD00D6068
:1021400008F1040846E1D8F80010EA17C1E9005286
:10215000F6E7D8F800100D80F2E70D70F0E718F8F8
:10216000041B8DF8001000208DF80100EB460120C3
:1021700003E058F804BB4FF0FF3061074FF0000157
:1021800002D40DE009F101018946B9420FDA814517
:10219000F8DB1BF809100029F4D108E009F101016E
:1021A00089468142FADB1BF809100029F6D1039811
:1021B0005346A0EB090721463846179A00F080FAEB
:1021C000284400EB090507E044E008E10DE01BF8B6
:1021D000010B524617999047B9F10109F7D25346BE
:1021E00021463846179AF2E039E00A21C4F3025238
:1021F0004FF0000B0091022A06D058F8040BC117CB
:10220000032A09D00AE023E008F1070020F00702C2
:10221000F2E80201904605E000B2C117042A01D19C
:1022200040B2C117002906DA0A460021404261EB9C
:1022300002012D2202E0220504D52B228DF8042074
:10224000012203E0E20701D02022F7E7914657E0A0
:102250000A2100E010214FF0000B00910BE010214B
:102260004FF0000B44F004040827009103E008201D
:102270004FF0000B0090C4F30252022A05D058F828
:10228000040B0021032A08D008E008F1070020F021
:102290000702F2E80201904603E080B2042A00D16E
:1022A000C0B24FF0000922072AD53278702A07D031
:1022B000DDF800C08CF0100C5CEA0B0C05D00EE0D1
:1022C00040228DF80420012208E050EA010306D0E4
:1022D00030238DF804308DF8052002229146009BB2
:1022E00083F0080353EA0B030AD150EA010201D13B
:1022F000620705D530228DF804204FF001097F1EBA
:102300003278582A04D039A20C920CAA02920BE01F
:102310003BA2F9E75B46009AFEF71EF80C9B9B5C1C
:10232000029A521E0292137050EA0102F2D10298F0
:1023300004A9081A00F1200B600702D524F48034A8
:1023400000E001275F4502DDA7EB0B0000E0002065
:1023500000EB0B01009003984944401A0390E003FE
:1023600006D453462146179A039800F0A9F905446C
:10237000002706E001A85246C05D179990476D1CE2
:102380007F1C4F45F6DBE0030CD553462146179AD8
:10239000039800F095F9054404E03020524617995F
:1023A00090476D1C0099481E00900029F5DC08E05C
:1023B0000298029952460078491C02911799904759
:1023C0006D1CBBF10001ABF1010BF1DC5BE100F036
:1023D00065F90544761C307800287FF40DAE19B0FD
:1023E0002846BDE8F08F0000092801003031323363
:1023F0003435363738396162636465660000000041
:10240000303132333435363738394142434445462A
:1024100000000000600700D4062708F1070020F044
:102420000700F0E80223804603F0004C5FEA0C004E
:1024300001D097A009E0200501D596A005E0E007AE
:1024400001D095A001E0AFF24C001390307823F05A
:10245000004365280CD006DC452809D046281DD04D
:1024600047287FD13BE0662818D067287AD136E02C
:102470000021112F01DB112000E0781CCDE90001C3
:1024800004A90CA8FFF7EEFCDDE90D010C9A4FF052
:10249000000B07F10109109200914EE04FF000404F
:1024A0000097CDE9011004A90CA8FFF7DBFCDDE9DA
:1024B0000D020C9B0F994FF0000B91461093009268
:1024C00011B9791C00EB0109B7EB090003D4C0F185
:1024D000FF3B07F10109A9EB0700019042E0012F42
:1024E00000DA01270021112F01DD112000E038461C
:1024F000CDE9000104A90CA8FFF7B4FCDDE90D014A
:102500000C9A00914FF0000BB946109221070FD49E
:10251000009A4A4503DA914601E0A9F10109B9F1AF
:10252000010F05DD109AA9F10101515C3029F4D0A9
:10253000B84202DA10F1040F03DA0121CDE90110EB
:1025400010E0002803DC8344A9EB000102E0411CF9
:10255000494500DD8946A0EB0B00401C01904FF07F
:1025600000400290200705D40198484502DB4FF057
:10257000FF30019000208DF84B0002980DF14B07C1
:10258000B0F1004F25D002200C902B200D90029826
:1025900000280CDA404202902D200D9007E00A211D
:1025A0000298FDF7C3FE3031029007F8011D0C9927
:1025B000481E0C900029F2DC02980028EFD1791E09
:1025C0000D980870307800F0200040F0450007F8C2
:1025D000020D11A8C01BC01D02901398007800B115
:1025E000012000EB0901019801EBE0710298014420
:1025F0000398401A401E0390E00306D45346214638
:10260000179A039800F05CF805441398007818B105
:102610005246179990476D1CE00323D55346214637
:10262000179A039800F04CF805441BE0BBF1000F2B
:1026300007DB0098584504DD1098179910F80B0037
:1026400001E0179930205246904701980BF1010B99
:10265000401E05F10105019004D12E205246179924
:1026600090476D1CB9F10001A9F10109DEDC05E01C
:1026700017F8010B5246179990476D1C0299481E96
:1026800002900029F4DC53462146179A03989EE6EF
:102690002D0000002B000000200000002DE9F0417B
:1026A000044600251E461746880404D405E0394632
:1026B0002020B0476D1C641EF9D52846BDE8F08186
:1026C0002DE9F041044600251E469046C80301D579
:1026D000302700E02027880404D505E0414638462D
:1026E000B0476D1C641EF9D52846BDE8F0810A6824
:1026F000531C0B601070704770B592B0012104201C
:10270000FEF72EFF01214802FEF72AFF01210846AD
:10271000FEF70AFF4FF40040FEF7FCFE0420ADF880
:10272000440000248DF8474003208DF8460011A98D
:102730002948FEF7BFFA294E05230122022130461F
:10274000FEF748F901258DF835500F944FF46020BD
:102750000E900C948DF840508DF834500CA93046F2
:10276000FEF714F91D484C30019080150790059430
:102770001B490291800008908020069003940495E4
:10278000202009900B94C0010A90164C01A9204604
:10279000FEF71AFA01212046FEF77AF901213046A8
:1027A000FEF7A6F801213046FEF796F83046FEF710
:1027B0004BF93046FEF7AFF80128FAD03046FEF765
:1027C00054F93046FEF7A0F80128FAD0012130462E
:1027D000FEF73FF912B070BD00080140002401402F
:1027E0002E00002008000240401E411CFCD1704712
:1027F00004490A885206FCD5024AC1B2121D118052
:10280000704700000038014008B501214020FEF764
:10281000A7FE01210846FEF7A3FE4FF46050ADF875
:10282000000048208DF8030003208DF8020069465F
:102830000148FEF73FFA08BD00180140F8B51948F5
:102840000068009000F034F80546174C4FF4005132
:102850002046FEF782FA8DF80000A1142046FEF70C
:102860007CFA8DF801000021104B00266F461C1FDA
:10287000785C48B10120605423F81160491CC9B24A
:102880000229F5D32846F8BD33F81100401C82B266
:1028900023F81120022AF1D3605C0028EED06654A0
:1028A0004DB2EBE7242A0008001801401E0000206A
:1028B00010B54FF0FF344FF400610F48FEF74DFAAA
:1028C0000E49002258B14888022803D3087808B17D
:1028D0000A700224012008704A80204610BD4888F2
:1028E000401C80B248806428F7D308780028F4D0D0
:1028F0000A700324F1E700000018014016000020D0
:10290000FFF782FF4FF4165000F032F86420FEF714
:1029100087F90A20FEF7C2FFFFF7EEFEFEF7EEFA98
:10292000FEF746FA0B4C0A4860600B48A0600B4863
:102930002061E0604FF4FA75E068FEF77BFD94F9E2
:102940000100FEF74DFD2846FEF75EF9F4E70000B2
:10295000351400083C000020E1130008500000205E
:102960000346012000E05843491EC9B2FBD270471C
:1029700070B586B0044601210420FEF7F1FD012167
:102980000846FEF7EDFD01218803FEF7E9FD4FF44F
:102990000071ADF8141018218DF8171003258DF86B
:1029A00016501E4E05A93046FEF784F93115ADF8D4
:1029B000141004218DF817108DF8165005A9304613
:1029C000FEF778F901940020ADF810000C21ADF865
:1029D0000E10ADF80C00ADF80A00ADF80800104C70
:1029E00001A92046FFF7A6F925218DF80010012145
:1029F0008DF803108DF801108DF802106846FEF76F
:102A000055FD012240F225512046FFF777F90121BB
:102A10002046FFF747F906B070BD000000080140EE
:102A2000003801400100000000000000000000002C
:102A300000000000000C0C0C0C0C0C000C00000042
:102A40003C1E1E000000000000000000003C3C3F57
:102A50003C1E3F1E1E0000000C3E3F0F0E1C3C3F64
:102A60001F0C000000363F1F1E3C3C3E360000009D
:102A7000000C1E1E3E3F3F1B3E00000006060300EA
:102A80000000000000000000203018181818181866
:102A900030200000060C1818181818180C06000032
:102AA00000000C3F1E1E3F0C00000000000C0C0C30
:102AB0003F0C0C0C000000000000000000000000B3
:102AC00006060300000000003F00000000000000B8
:102AD0000000000000000000060000003018181878
:102AE0000C0C060606030000001E33333333333369
:102AF0001E000000000C0E0C0C0C0C0C1E00000044
:102B0000001E3333180C06033F000000001E333054
:102B10001C3030331E00000000181C1E1E1B3E1807
:102B200038000000003F03031F3030331E00000058
:102B3000001E1B031F3333331E000000003F1B1811
:102B40000C0C0C0C0C000000001E33331E3333330E
:102B50001E000000001E3333333E30361E000000DE
:102B60000000000C000000000C000000000000004D
:102B70000C0000000C0C00002030180C060C183063
:102B8000200000000000003F00003F0000000000A7
:102B9000060C18302030180C06000000001E3333DD
:102BA000180C0C000C000000001E333B3F3F3F039D
:102BB0003E000000000C0C1C1E1E3E3637000000BC
:102BC000001F36361E3636361F000000003E330327
:102BD000030303331E000000001F36363636363638
:102BE0001F000000003F361E1E1E06363F0000007C
:102BF000003F361E1E1E06060F000000003C360376
:102C0000033B33361C000000003736363E3636367E
:102C100037000000003F0C0C0C0C0C0C3F000000B7
:102C2000003E1818181818181B0F0000003F361E19
:102C30000E1E1E363F000000000F06060606062682
:102C40003F000000003F3F3F3F3F3F3F3F0000004D
:102C5000003F363E3E3E3E363F000000001E33330E
:102C6000333333331E000000001F36361E060606BF
:102C70000F000000001E333333333F3B1E3800008B
:102C8000001F36361E1E36363F000000003E33035E
:102C90000E1830331F000000003F3F0C0C0C0C0CD2
:102CA0001E00000000373636363636361C0000006F
:102CB000003736361E1E1C0C0C000000003F3F3F44
:102CC0001E1E1E1E1E000000003F1E1E0C0C1E1E9F
:102CD0003F000000003F1E1E0C0C0C0C1E000000EC
:102CE000003F1B180C0C06363F0000003C0C0C0C7F
:102CF0000C0C0C0C0C3C00000606060C0C181818EA
:102D0000300000001E18181818181818181E000097
:102D10000C1E000000000000000000000000000089
:102D20000000000000003F000C0000000000000058
:102D300000000000000000001C363C363C00000093
:102D4000000706061E3636361E0000000000000092
:102D50003C3606063C000000003830303C36363643
:102D60003C000000000000001C363E063C00000055
:102D700000380C0C3E0C0C0C3E0000000000000063
:102D80003C361C063E263C00000706061E3636363C
:102D90003F000000000C00000E0C0C0C1E00000098
:102DA000001800001C18181818180F000007060655
:102DB0003E1E1E363F000000000F0C0C0C0C0C0CCD
:102DC0003F000000000000001F3F3F3F3F000000A9
:102DD000000000001F3636363F00000000000000F3
:102DE0001C3636361C000000000000001F36363648
:102DF0001E060F00000000003C3636363C3038001E
:102E0000000000003F0E06060F000000000000005A
:102E10003E061C303E00000000000C0C1E0C0C0C8A
:102E200038000000000000003F3636363C0000004D
:102E3000000000003F361E1C0C00000000000000D7
:102E40003F3F1E1E1E000000000000003F1E0C1E23
:102E50003F000000000000003F361E1C0C0C070065
:102E6000000000003E180C0C3E0000003818181836
:102E70000C181818183800181818181818181818D6
:102E8000181818000E0C0C0C180C0C0C0C0E00066C
:102E90002F380000000000000000000000000000CB
:102EA00000000000000000000000000000001818F2
:102EB000181818181800003838000000D8FC6C36B4
:102EC00000000000000000000000000000006C6C2A
:102ED0006CFF363636FF36363600000000183C7E72
:102EE0007E1E1C3878787E7E3C1818000000666FC5
:102EF0003F3F3F7EF8FCFCFC6600000000001C36F3
:102F000036361EFE6F7B33B3FE0000000E0E0C073C
:102F1000000000000000000000000000C060303031
:102F2000181818181818303060C00000060C18184F
:102F300030303030303018180C0600000000001817
:102F400018FF3C3CFF1818000000000000000018AB
:102F5000181818FF181818180000000000000000CA
:102F6000000000000000000E0E0C07000000000032
:102F7000000000FE00000000000000000000000053
:102F8000000000000000000E0E0000000080C0C025
:102F90006060303018180C0C060600000000386C19
:102FA000C6C6C6C6C6C6C66C380000000000181EDD
:102FB00018181818181818187E00000000007CC691
:102FC000C6C6606030180CC6FE00000000007CC65B
:102FD000C6603860C0C0C6663C000000000060707B
:102FE000786C6C6666FE6060F80000000000FE060B
:102FF00006063E6EC0C0C6663C0000000000786C4D
:1030000006063E6EC6C6C66C380000000000FE66AE
:1030100066303018181818181800000000007CC618
:10302000C6C66C386CC6C6C67C0000000000386C92
:10303000C6C6C6ECF8C0C06C3C0000000000000032
:1030400000383800000000383800000000000000A0
:10305000000018000000000018180C000000C060FC
:1030600030180C060C183060C00000000000000092
:1030700000FF000000FF0000000000000000060C40
:10308000183060C06030180C0600000000007CC6DC
:10309000C6CEC060303000383800000000003C660A
:1030A000FEFFFFFFFF7FC6663C000000000018180F
:1030B000383C3C6C7C66C6C6EF00000000003F66F2
:1030C00066663E66C6C6C6663F0000000000FCC6D7
:1030D000C60303030303C6663C00000000003F660E
:1030E000C6C6C6C6C6C6C6663F00000000007FC68C
:1030F00036363E363606C6C67F00000000007FC664
:1031000036363E36360606060F00000000007C66A6
:1031100066030303F36366663C0000000000EFC62D
:10312000C6C6C6FEC6C6C6C6EF00000000007E18B2
:1031300018181818181818187E0000000000FC3025
:10314000303030303030303030331F000000FF6618
:10315000361E1E1E36366666FF00000000000F0693
:1031600006060606060606C6FF0000000000FF7EF3
:103170007E7E7E7E7E7E7E7EFF0000000000E7CEAB
:10318000CEDEDEF6F6F6E6E6CF00000000003C6696
:10319000C3C3C3C3C3C3C3663C00000000007FC6F3
:1031A000C6C6C67E060606060F00000000003C6686
:1031B000C3C3C3C3C3DFF7763CE0000000007FC693
:1031C000C6C67E36366666C6CF0000000000FCC666
:1031D000C6060C3860C0C6C67E0000000000FFDBDB
:1031E00018181818181818183C0000000000EFC62E
:1031F000C6C6C6C6C6C6C6C67C0000000000EFC66E
:10320000C6666C6C3C3C3818180000000000FFDB00
:10321000DBDBDBFFFF7E6666660000000000EFC6BA
:103220006C6C3838386C6CC6EF0000000000FF662C
:10323000663C3C18181818183C0000000000FE639B
:10324000603030180C0CC6C67F000000F818181843
:10325000181818181818181818F800000006060C86
:103260000C1818183030606060C0C0003E3030303C
:103270003030303030303030303E000078CC00001C
:10328000000000000000000000000000000000003E
:1032900000000000000000000000FF000E18000009
:1032A000000000000000000000000000000000001E
:1032B00000007CC6F8CCC6C6FC0000000000070673
:1032C00006063E6EC6C6C66E3E0000000000000048
:1032D000000078CC060606CC780000000000E0C0B4
:1032E000C0C0F8CCC6C6C6ECF80000000000000064
:1032F00000007CC6FE0606C67C0000000000F098B8
:103300001818FE18181818187E0000000000000099
:103310000000FC66663C067CC6C67C000000070612
:1033200006067ECEC6C6C6C6EF00000000001C1C06
:1033300000001E18181818187E0000000000707099
:10334000000078606060606060663E000000070614
:103350000606F6361E3E3666FF00000000001E1808
:1033600018181818181818187E000000000000001F
:103370000000FFB6B6B6B6B6FF00000000000000C1
:1033800000007FCEC6C6C6C6EF00000000000000E9
:1033900000007CC6C6C6C6C67C0000000000000057
:1033A00000003F6EC6C6C6663E060F000000000065
:1033B0000000F8CCC6C6C6CCF8C0E0000000000093
:1033C0000000FFDC0C0C0C0C3F00000000000000B3
:1033D0000000FCC6067CC0C67E00000000000000A5
:1033E00018187E1818181818700000000000000047
:1033F0000000E7C6C6C6C6E6FC00000000000000EC
:103400000000EFC66C6C3C181800000000000000C3
:103410000000FFDBDBFFFF6666000000000000002D
:103420000000FE6C3838386CFE0000000000000020
:103430000000EFC66C6C3C3818180F00000000004C
:103440000000FE66301818CCFE000000C06060600E
:10345000606030606060606060C00030303030308C
:103460003030303030303030303030000E181818F6
:103470001818301818181818180E001C76C60000F6
:10348000000000000000000000000000000000003C
:10349000000000000000000000000000000000002C
:1034A000000000000000000000000000000000001C
:1034B000000000000000000000000000000000000C
:1034C000000000E001E001E001E001E001C000C017
:1034D00000C000C000C000C000000000000000E00C
:1034E00001E001E00100000000000000000000E039
:1034F0000EE00E7007B8039801CC00000000000039
:1035000000000000000000000000000000000000BB
:1035100000000000000000000000000000000000AB
:1035200000000000001806180618061806FE0FFE18
:103530000F180618060C030C03FE0FFE0F0C030CED
:10354000030C030C0300000000000000000000005A
:1035500000C000C000F003F807DC07DC07DC00F85F
:1035600000F000E001C003C003C007DC07DC07DC9B
:1035700007D803F001C000C00000000000000000F8
:1035800000000000001E071E033303B301B301F364
:1035900001F300FE07FE07E00CF00CF00CF80CD86D
:1035A0000C98078C070000000000000000000000DD
:1035B00000000000007800EC00EC00EC00EC00ECF7
:1035C000073C031C033E03B601F701E701E700C710
:1035D00001EE0D3C07000000000000000000001C90
:1035E000003C003000300018000E00000000000019
:1035F00000000000000000000000000000000000CB
:1036000000000000000000000000000000000000BA
:103610000C0006000380038001C001C001E000E04F
:1036200000E000E000E000E000E000C001C0018038
:1036300001800300030006000C00000000000006EB
:10364000000C0018003800300070007000E000E04E
:1036500000E000E000E000E000E0007000700030FA
:1036600000380018000C00060000000000000000F8
:1036700000000000000000C000C000C000DE0EFC22
:103680000FF003F003FC0FDE0EC000C000C000000E
:10369000000000000000000000000000000000002A
:1036A000000000000000000000C000C000C000C01A
:1036B00000C000FE0FC000C000C000C000C000007D
:1036C00000000000000000000000000000000000FA
:1036D00000000000000000000000000000000000EA
:1036E0000000000000000000000000000000001CBE
:1036F000003C003000300018000E00000000000008
:1037000000000000000000000000000000000000B9
:10371000000000FE0F00000000000000000000009C
:103720000000000000000000000000000000000099
:103730000000000000000000000000000000000089
:103740000000000000000000000000000000003C3D
:10375000003C003C000000000000000000000000F1
:103760000C000E000600070003000380018001C06A
:1037700000C000E000600060003000300018001859
:10378000001C000C000E00060000000000000000FD
:103790000000000000F001B8031C071C070E0E0E0D
:1037A0000E0E0E0E0E0E0E0E0E0E0E0E0E1C071C24
:1037B00007B803F001000000000000000000000056
:1037C0000000000000C000E000FC00E000E000E0BD
:1037D00000E000E000E000E000E000E000E000E0E9
:1037E00000E000FC070000000000000000000000F6
:1037F0000000000000F8018C0306070E070E07000A
:103800000780038003C0016000300018060C060624
:1038100006FE07FE07000000000000000000000098
:103820000000000000F800CC018E038E038E0380A0
:1038300003C001F0008003000300070E070E070E0F
:10384000078C03F8010000000000000000000000E9
:1038500000000000038003C003C003E003B003B016
:103860000398038C038C038603FE0F800380038080
:10387000038003E00F0000000000000000000000D3
:103880000000000000FC07FC070C000C000C000C02
:1038900000FC019C030C07000700070E070E0786BB
:1038A000038C03F80100000000000000000000008D
:1038B0000000000000E00338071C071C000C000E8D
:1038C00000EE033E071E0E0E0E0E0E0E0E0C0E1C0C
:1038D000063807F0010000000000000000000000B2
:1038E0000000000000F80FFC0F1C060C030C030086
:1038F0000380018001C000C000C000E000E000E0E3
:1039000000E000E0000000000000000000000000F7
:103910000000000000F8031C070E0E0E0E0E0E1E17
:10392000067C07F001DC030C070E0E0E0E0E0E0EC9
:103930000E1C07F003000000000000000000000063
:103940000000000000F0011C031C070E060E0E0E06
:103950000E0E0E0E0F9C0FF80E000E000700071C37
:10396000039C03F8000000000000000000000000BD
:1039700000000000000000000000000000E001E086
:1039800001E001000000000000000000000000E075
:1039900001E001E001000000000000000000000064
:1039A000000000000000000000000000000000E037
:1039B00000E0000000000000000000000000000027
:1039C00000E000E000C00060000000000000000017
:1039D000000000000C000600038001C00060003001
:1039E0000018000C00180030006000C000800100CA
:1039F000030006000C0000000000000000000000B2
:103A0000000000000000000000000000000000FEB8
:103A10000F0000000000000000FE0F00000000008A
:103A20000000000000000000000000000000000096
:103A30000000000C00180030006000C00080010091
:103A4000030006000C000600038001C00060003087
:103A50000018000C00000000000000000000000042
:103A6000000000F0031C07060E060E0E0E0E0E00E0
:103A7000078003E00060006000600000000000F0CC
:103A800000F000F000000000000000000000000056
:103A90000000000000E003780E180CDC0FEC0F6E45
:103AA0000B6E0B3E0B3E0BBE0BBE0FEE071C081C35
:103AB0000C3806E0030000000000000000000000D9
:103AC0000000000000E000E000F000F001F001D88C
:103AD00001980398039803F8030C070C070C070CD4
:103AE0000E0E0E1F0F00000000000000000000007E
:103AF0000000000000FF018E030E070E070E070EE8
:103B0000078E03FE010E070E060E0E0E0E0E0E0E93
:103B10000E0E07FF03000000000000000000000080
:103B20000000000000E00F380E1C0C1C0C0C000EF6
:103B3000000E000E000E000E000E000E0C1C0C1CE1
:103B4000063803F001000000000000000000000043
:103B50000000000000FF008E030E070E070E0E0E81
:103B60000E0E0E0E0E0E0E0E0E0E0E0E0E0E070E7C
:103B700007CE03FF0000000000000000000000006E
:103B80000000000000FF070E060E0C0E000E008E57
:103B9000018E01FE018E018E010E000E000E0C0E34
:103BA0000C0E06FF070000000000000000000000EF
:103BB0000000000000FF070E070E0C0E0C0E008E1A
:103BC000018E01FE018E018E010E000E000E000E10
:103BD000000E001F000000000000000000000000B8
:103BE0000000000000F00738071C061C060C000E41
:103BF000000E000E000E00CE0F0E070E071C071C55
:103C0000073807F00100000000000000000000007D
:103C100000000000001F0F0E0E0E0E0E0E0E0E0EF8
:103C20000E0E0EFE0F0E0E0E0E0E0E0E0E0E0E0EC3
:103C30000E0E0E1F0F00000000000000000000002C
:103C40000000000000FC07E000E000E000E000E011
:103C500000E000E000E000E000E000E000E000E064
:103C600000E000FC07000000000000000000000071
:103C70000000000000F00F800380038003800380B9
:103C8000038003800380038003800380038003801C
:103C900003800380038E03CE01FC000000000000BF
:103CA0000000000000DF0F0E038E01CE00CE006E7C
:103CB000007E007E00FE00EE01CE01CE038E030EDC
:103CC000070E0F9F0F000000000000000000000022
:103CD00000000000001F000E000E000E000E000E7F
:103CE000000E000E000E000E000E000E000E0C0E58
:103CF0000C0E06FF0700000000000000000000009E
:103D000000000000001F0F1E0F1E0F1E0FBE0FBE73
:103D10000FBE0FBE0FFE0EF60EF60EF60EF60E6678
:103D20000E660E6F0F000000000000000000000093
:103D300000000000000F0E1E0C1E0C3E0C3E0C7608
:103D40000CE60CE60CC60DC60D860F060F060F0618
:103D50000E060E0F0C000000000000000000000026
:103D60000000000000F001B8031C071C060E0E0E38
:103D70000E0E0E0E0E0E0E0E0E0E0E0E0E1C061C4F
:103D800007B803F001000000000000000000000080
:103D90000000000000FF030E070E0E0E0E0E0E0EAA
:103DA0000E0E0E0E07FE030E000E000E000E000E8D
:103DB000000E001F000000000000000000000000D6
:103DC0000000000000F001B8031C071C060E0E0ED8
:103DD0000E0E0E0E0E0E0E0E0E0E0EFE0EDC069CBF
:103DE000079803F003800F000700000000000000A8
:103DF0000000000000FF030E070E0E0E0E0E0E0E4A
:103E00000E0E07FE01EE00CE01CE018E038E030ED4
:103E1000070E071F0E000000000000000000000059
:103E20000000000000F80D1C0F0E0C0E0C0E001E02
:103E3000007C00F001C0070007000E060E060E0E03
:103E40000E1E07F603000000000000000000000046
:103E50000000000000FE0FE60CE308E308E000E0CD
:103E600000E000E000E000E000E000E000E000E052
:103E700000E000F001000000000000000000000071
:103E800000000000001F0E0E0C0E0C0E0C0E0C0E8F
:103E90000C0E0C0E0C0E0C0E0C0E0C0E0C0E0C0E52
:103EA0000C1C06F8030000000000000000000000E9
:103EB00000000000003F0F1E0E1C061C061C061C06
:103EC000033803380338033803F001F001F001F040
:103ED00001E000E000000000000000000000000021
:103EE0000000000000FF0FEE0CEE0CEE06EE06EEFA
:103EF00007FC07FC07FC03FC03FC03FC03BC039862
:103F0000019801980100000000000000000000007E
:103F10000000000000BE0F1C0738033803B801F092
:103F200001F000E000E000E001F001F003B80398C8
:103F3000031C07BE0F00000000000000000000008E
:103F400000000000003F0F1E0E1C061C0338033843
:103F500003F001F001F000E000E000E000E000E02C
:103F600000E000F803000000000000000000000076
:103F70000000000000FC0F0C0786078003C003C090
:103F800001C001E000E000700070003800380C3C17
:103F90000C1C06FE0700000000000000000000E00E
:103FA0000F60006000600060006000600060006002
:103FB0000060006000600060006000600060006001
:103FC00000600060006000E00F00000000000000E2
:103FD0000000000C001800180018003000300060CD
:103FE0000060006000C000C000800180018001000E
:103FF000030003000600060006000C00000000FCA1
:1040000001800180018001800180018001800180A8
:104010000180018001800180018001800180018098
:1040200001800180018001FC01000000000000E02F
:1040300001F003180600000000000000000000006E
:104040000000000000000000000000000000000070
:104050000000000000000000000000000000000060
:104060000000000000000000000000000000000050
:104070000000000000000000000000000000000040
:10408000000000000000000000FF0F0000000038EA
:1040900000E0000000000000000000000000000040
:1040A0000000000000000000000000000000000010
:1040B0000000000000000000000000000000000000
:1040C000000000000000000000000000000000F000
:1040D000031C071C07E00778071C070E070E070ED6
:1040E000079E0FFC0F000000000000000000000011
:1040F00000000018001E001C001C001C001C00DC3E
:10410000037C073C0E1C0E1C0E1C0E1C0E1C0E1CF1
:10411000063C07FC03000000000000000000000057
:10412000000000000000000000000000000000F09F
:10413000019C039C038E030E000E000E000E061C55
:10414000061C03F001000000000000000000000059
:10415000000000000680070007000700070007F8BE
:10416000079C071C070E070E070E070E070E070C0D
:10417000079C0FF803000000000000000000000092
:10418000000000000000000000000000000000E04F
:10419000033807180E1C0EFC0F1C001C001C0038F6
:1041A0000C7806E0030000000000000000000000A2
:1041B0000000000000C007E00E700E70007000FEEE
:1041C0000770007000700070007000700070007068
:1041D000007000FC03000000000000000000000070
:1041E000000000000000000000000000000000F0DF
:1041F0000FB80B1C071C071C07B803F8011C00FCB8
:1042000000F8070E0E0E0E1E0FF80300000000004F
:1042100000000018001E001C001C001C001C00FCFC
:10422000033C071C071C071C071C071C071C071C5A
:10423000071C07BE0F000000000000000000000087
:104240000000000000E000E000000000000000FCB2
:1042500000E000E000E000E000E000E000E000E05E
:1042600000E000FC0700000000000000000000006B
:10427000000000000080038003000000000000F048
:104280000380038003800380038003800380038016
:1042900003800380038003DC01FC000000000000B9
:1042A00000000018001E001C001C001C001C00DC8C
:1042B000079C01DC01DC00FC00FC00FC01DC019C33
:1042C000039C03BE0F00000000000000000000007F
:1042D000000000C000FC00E000E000E000E000E0C2
:1042E00000E000E000E000E000E000E000E000E0CE
:1042F00000E000FC070000000000000000000000DB
:10430000000000000000000000000000000000FFAE
:104310000FFE0FEE0EEE0EEE0EEE0EEE0EEE0EEEAB
:104320000EEE0EFF0F000000000000000000000075
:10433000000000000000000000000000000000DE9F
:10434000037C071C071C071C071C071C071C071CF9
:10435000071C07BE0F000000000000000000000066
:10436000000000000000000000000000000000F05D
:1043700001B8031C070E0E0E0E0E0E0E0E0E0E1CB6
:10438000071C07F001000000000000000000000012
:10439000000000000000000000000000000000FE1F
:1043A000033C071C0E1C0E1C0E1C0E1C0E1C0E1CAF
:1043B000073C07FC031C001C007E000000000000FE
:1043C000000000000000000000000000000000F8F5
:1043D000069C071C070E070E070E070E070E070C9C
:1043E000079C07F80700070007C00F000000000047
:1043F000000000000000000000000000000000BFFE
:104400000FF80E78003800380038003800380038CF
:10441000003800FF01000000000000000000000064
:10442000000000000000000000000000000000F09C
:104430000F380E1C0C1C007800F00380070C0E0CCB
:104440000E1C07FC0300000000000000000000003C
:10445000000000000000006000600070007000FEBE
:1044600003700070007000700070007000700070C9
:10447000067006E0030000000000000000000000DD
:104480000000000000000000000000000018069E70
:10449000071C071C071C071C071C071C071C071C04
:1044A00007BC0FF80300000000000000000000003F
:1044B0000000000000000000000000000000007E7E
:1044C0000F3C0E38063806700370037003E001E0FD
:1044D00001E001C00000000000000000000000003A
:1044E000000000000000000000000000000000FFCD
:1044F0000FCE0DCE0DEE0DFC0DFC07BC07BC07BCAE
:10450000071803180300000000000000000000006E
:10451000000000000000000000000000000000FE9D
:104520000F3803B803F001F000E000E001F001B83B
:10453000039807FE0F0000000000000000000000CC
:10454000000000000000000000000000000000FE6D
:104550000F3C0338033803F001F001F001E000E004
:1045600000C000600060003C003C00000000000053
:10457000000000000000000000000000000000FC3F
:10458000078C03CC03C001E001E000F000700C7860
:104590000C380EFC070000000000000000000000C6
:1045A00007800380018001800180018001800180FB
:1045B00001C0016000C00180018001800180018094
:1045C0000180018001800300070000C000C000C01E
:1045D00000C000C000C000C000C000C000C000C0DB
:1045E00000C000C000C000C000C000C000C000C0CB
:1045F00000C000C000C000C000C000000000001CDF
:104600000038003000300030003000300030003022
:10461000007000C00070003000300030003000300A
:10462000003000300038001C00000000003C006C2E
:1046300000C608860D000F0000000000000000000A
:10464000000000000000000000000000000000006A
:10465000000000000000000000000000000000005A
:10466000000000000000000000000000000000004A
:10467000000000000000000000000000000000003A
:10468000000000000000000000000000000000002A
:10469000000000000000000000000000000000001A
:1046A000000000C007C007C007C003C003C003C0AC
:1046B00003C003C003800380038003800380038062
:1046C0000380038003000000000000C007C007C093
:1046D0000780030000000000000000000000000050
:1046E0000000000000F01EF01EF01EF01E700E70A4
:1046F0000E700E000000000000000000000000002E
:1047000000000000000000000000000000000000A9
:104710000000000000000000000000000000000099
:1047200000000000000000E038E038E038E038E049
:10473000387038FEFFFEFF701C701C701C701C3837
:104740001CFEFFFEFFFEFF380E380E380E380E1C22
:104750000E0000000000000000000000000000004B
:1047600000800380038003E00FF81FF83FBC3FBCCC
:104770003BBC3BBC03F803F803F003C00F801F8071
:104780003F803FBC7BBC7BBC7BBC3BBC3FF83FF06D
:104790001FC00780038003800300000000000000AA
:1047A000000000000000007C307E38EE18EE1CEEA9
:1047B0000CEE0CEE06EE06EE037E03BC19807DC007
:1047C0007FC0EEC0EE60EE60EE30EE30EE187E1888
:1047D0007C1818000000000000000000000000002D
:1047E00000000000000000E007F00F780E380E38DF
:1047F0000E380E780FF007F003F001F800FC01DC32
:1048000073DE738E770E7F0E3E1E3C3EFEFCFFF87D
:10481000E7E00100000000000000000000000000D0
:1048200000000000000000C001C001C001C001C0C4
:1048300001C00100000000000000000000000000B6
:104840000000000000000000000000000000000068
:104850000000000000000000000000000000000058
:1048600000006000F000780038001C000E000E0010
:104870000700070007000380038003800380038094
:10488000038003000700070007000E000E001C0055
:104890003C003800700060000000000000000000D4
:1048A000000C001E001C00380070007000E000E0EA
:1048B00000C001C001C001C001C001C001C001C0F1
:1048C00001C001C001C001E000E000F0007000384C
:1048D000003C001E000E0000000000000000000070
:1048E000000000000000008003800380038EE3BE10
:1048F000FBFC7FF01FC007F01FFC7FBEFB8EE38038
:10490000038003800380030000000000000000001B
:104910000000000000000000000000000000000097
:104920000000000000000000000000000080038084
:10493000038003800380038003FEFFFEFF8003806B
:1049400003800380038003800380030000000000D5
:104950000000000000000000000000000000000057
:104960000000000000000000000000000000000047
:104970000000000000000000000000000000000037
:10498000000000000000000000000078007C00FC37
:104990000078007000700038001C0000000000006B
:1049A0000000000000000000000000000000000007
:1049B000000000000000000000FEFFFEFF000000FD
:1049C00000000000000000000000000000000000E7
:1049D00000000000000000000000000000000000D7
:1049E00000000000000000000000000000000000C7
:1049F00000000000000000000000000000000000B7
:104A0000000000000000000000000038007C007C76
:104A1000003800000000000000000000000000005E
:104A2000000000000000E00060007000300038006E
:104A30001C000C000E0006000700038003C001C02C
:104A400001E000600070003000380018001C000E0B
:104A5000000E000600000000000000000000000042
:104A600000000000000000E00FF01F783C3C3C3CE0
:104A7000781C781E701E701E701E701E701E701EB8
:104A8000701E701E701C783C783C38783CF81FE033
:104A90000F80030000000000000000000000000084
:104AA0000000000000000080078007C007E007F852
:104AB00007B807980780078007800780078007806E
:104AC00007800780078007800780078007800780AE
:104AD00007000000000000000000000000000000CF
:104AE00000000000000000F00FF83F7C3C3C781E06
:104AF00078007800780038003C003C001E000F0071
:104B0000078007C003E001F00078007C00FC7FFC18
:104B10007F00000000000000000000000000000016
:104B200000000000000000E00FF03F783C3C781CE3
:104B300078187800780038003EC00FC01F003E0093
:104B4000780078007818701E783C787C3CF83FF04C
:104B50000F800300000000000000000000000000C3
:104B600000000000000000001C001E001E001F804E
:104B70001F801FC01FE01DF01C701C781C3C1C1CFB
:104B80001C1E1CFFFFFFFFFFFF001C001C001C0081
:104B90001C000000000000000000000000000000F9
:104BA00000000000000000F83FF83F3800380038EF
:104BB000003C001C00FC07FC1F3E3E1E3C00780031
:104BC00078007000700C780E781E781E3EFC1FF87E
:104BD0000FE00300000000000000000000000000E3
:104BE00000000000000000000F000F8007C003C09D
:104BF00003E001F000F000F81FF83F7C783CF01E65
:104C0000F01EF01EF01EF01EF03CF07C78F83FF035
:104C10001F800700000000000000000000000000EE
:104C200000000000000000FEFFFEFF00F000780022
:104C300038003C001C001E000E000F00078007809B
:104C4000078003C003C003C001E001E001E000F001
:104C50000000000000000000000000000000000054
:104C600000000000000000F00FF81F3C3C1C781C06
:104C7000781C781C783C3C7C3EF00FF81F7C3E3E54
:104C8000781E780E700E701E701E783E7CFC3FF809
:104C90001FC0030000000000000000000000000032
:104CA00000000000000000F00FF81F7C3E1E7C1E7C
:104CB000780E780E780E780E781E3C3E3EFC3FF85B
:104CC0001F000F000F80078007C003C003E001E052
:104CD00000F00000000000000000000000000000E4
:104CE00000000000000000000000000000000000C4
:104CF000000000000000000000C003C003C003006B
:104D00000000000000000000000000C003C003C05D
:104D100003C00100000000000000000000000000CF
:104D20000000000000000000000000000000000083
:104D3000000000000000000000C003C003C003002A
:104D40000000000000000000000000C003C003C01D
:104D500007C00380038003C001E0000000000000E2
:104D60000000000000006000F00078003C000E0031
:104D7000078003C001E00078003C001E001C0038E2
:104D800000F000E001C0038007000F001C003800A5
:104D90007000600000000000000000000000000043
:104DA0000000000000000000000000000000000003
:104DB00000FEFFFEFFFEFF000000000000000000FC
:104DC00000FEFFFEFF0000000000000000000000E9
:104DD00000000000000000000000000000000000D3
:104DE00000000000000C001E003C007800F000E015
:104DF00001C0030007000E001C003800700078009E
:104E00003C001E000F8003C001E00070003C001E4B
:104E1000000C000000000000000000000000000086
:104E200000000000000000E00FF81F783E3C3C3C12
:104E3000783C783C3C003C003E001F800F8007C05F
:104E400003C003C003000000000000C003C003C093
:104E500003800100000000000000000000000000CE
:104E600000000000000000C00F703838301C608C5B
:104E70007FCEFFE6DCE6DC76CE76CE76CE76CE76DC
:104E8000EE76667667F63FEE1D0C001C003838F0B3
:104E90000E80030000000000000000000000000081
:104EA00000000000000000C003C007C007C007E00A
:104EB00007E00FE00FF00EF01EF01E701C783CF8BB
:104EC0003FF83FFC3F3C783C781E781EF01EF01EF9
:104ED000F0000000000000000000000000000000E2
:104EE00000000000000000FE0FFE1F1E3E1E781E88
:104EF000781E781E781E781E3CFE1FFE1F1E3E1E6A
:104F0000781EF01EF01EF01EF01E781E7CFE3FFE86
:104F10001F00000000000000000000000000000072
:104F200000000000000000E00FF03FF87C78783CC3
:104F3000703CF03CF01EF01E001E001E001E001E05
:104F4000001EF01EF03CF03C703C78787CF03FE0B6
:104F50001F800700000000000000000000000000AB
:104F600000000000000000FE03FE0F9E1F1E3E1EFC
:104F70007C1E781E781E781EF01EF01EF01EF01E9D
:104F8000F01E781E781E781E781E3C1E3FFE1FFE07
:104F9000070000000000000000000000000000000A
:104FA00000000000000000FC7FFC7F3C003C003C57
:104FB000003C003C003C003C00FC3FFC3F3C003C13
:104FC000003C003C003C003C003C003C00FCFFFC82
:104FD000FF000000000000000000000000000000D2
:104FE00000000000000000FEFFFEFF1E001E001E6D
:104FF000001E001E001E001E00FE1FFE1FFE1F1EC4
:10500000001E001E001E001E001E001E001E001EB0
:105010000000000000000000000000000000000090
:1050200000000000000000E00FF01FF83C78783C22
:10503000783C781C781E001E001E001E001E7F1E7D
:105040007F1E701E703C703C703C78787CF87FE06E
:105050007F807300000000000000000000000000DE
:10506000000000000000001E781E781E781E781ECA
:10507000781E781E781E781E78FE7FFE7F1E781EB2
:10508000781E781E781E781E781E781E781E781E70
:105090007800000000000000000000000000000098
:1050A00000000000000000C003C003C003C003C034
:1050B00003C003C003C003C003C003C003C003C0D8
:1050C00003C003C003C003C003C003C003C003C0C8
:1050D00003000000000000000000000000000000CD
:1050E00000000000000000007800780078007800E0
:1050F00078007800780078007800780078007800F0
:10510000783C783C783C783C783C787C3CF83FF0C4
:105110001FC00300000000000000000000000000AD
:10512000000000000000001E781E7C1E3E1E1E1E99
:105130000F9E07DE07DE03FE01FE03FE03FE07BE31
:10514000071E0F1E0F1E1E1E3E1E3C1E7C1E781EBE
:10515000F00000000000000000000000000000005F
:10516000000000000000001E001E001E001E001EA9
:10517000001E001E001E001E001E001E001E001E3F
:10518000001E001E001E001E001E001E00FEFFFE70
:10519000FF00000000000000000000000000000010
:1051A000000000000000003EF83EFC3EFC7EFC7E5D
:1051B000FC7EFC7EFE7EFEFEFEFEFEFEFEFEFEFE93
:1051C000FFFEF7DEF7DEF7DEF7DEF7DEF39EF39E97
:1051D000F3000000000000000000000000000000DC
:1051E000000000000000003E783E783E787E787E29
:1051F00078FE78FE78FE79FE79DE7BDE7B9E7B9EF4
:105200007F1E7F1E7F1E7E1E7E1E7E1E7C1E7C1EBF
:105210007800000000000000000000000000000016
:1052200000000000000000E00FF81F783E3C7C3CCE
:10523000781E781E701EF01EF01EF01EF01EF01E6E
:10524000F01EF01EF01E783C783C787C3CF83FF075
:105250001F800300000000000000000000000000AC
:1052600000000000000000FC0FFC3F3C7E3C783C4E
:10527000F03CF03CF03CF03CF03C783C7EFC3FFCE9
:105280000F3C003C003C003C003C003C003C003C2F
:10529000000000000000000000000000000000000E
:1052A00000000000000000E00FF81F783E3C7C3C4E
:1052B000781E781E701EF01EF01EF01EF01EF01EEE
:1052C000F01EF61EF71E7F3C7E3C7E7C3CF83FF0D5
:1052D0007F803B0000000000000000000000000094
:1052E00000000000000000FE0FFE3F1E3E1E781E64
:1052F000781E781E781E781E781E7EFE3FFE0F1EDA
:105300000F1E0F1E1E1E1E1E3C1E3C1E781E781EEB
:10531000F00000000000000000000000000000009D
:1053200000000000000000E00FF81F7C3E3C3C3C09
:10533000783C783C007C00F800F007E00F003F006C
:105340007E007800781E701E703E783C7CF83FF03E
:105350001FC003000000000000000000000000006B
:1053600000000000000000FE7FFE7FC003C003C0FD
:1053700003C003C003C003C003C003C003C003C015
:1053800003C003C003C003C003C003C003C003C005
:10539000030000000000000000000000000000000A
:1053A000000000000000001E781E781E781E781E87
:1053B000781E781E781E781E781E781E781E781E3D
:1053C000781E781E781E781E783C787C7CF83FF03A
:1053D0001FC00700000000000000000000000000E7
:1053E000000000000000000FF01EF01EF01E781CF0
:1053F000783C783C383C3C783C783C781E701EF019
:105400001EF00EF00FE00FE007E007C007C007C076
:1054100003C00300000000000000000000000000C6
:1054200000000000000000CFE3CFF3CFF3CEF7CEB3
:10543000F7CEF7FEF7FE77FE77FE77FE7EFC7EFC6A
:105440007EFC7E7C7E7C3E7C3E7C3C7C3C783C785A
:105450003C383C000000000000000000000000009C
:10546000000000000000001E783C783C3C783C784E
:105470001EF01EF00FE007C007C003C003C007E026
:1054800007E00FF00E701E781C383C3C381E781E6A
:10549000F00000000000000000000000000000001C
:1054A000000000000000001EF01E703C783C3878C0
:1054B0003C781C701EF00EE00FE007C007C003C070
:1054C00003C003C003C003C003C003C003C003C0C4
:1054D00003000000000000000000000000000000C9
:1054E00000000000000000FC7FFC7F007800380016
:1054F0003C001E001E000F00078007C003C003E031
:1055000001F000F000780078003C001E00FEFFFE75
:10551000FF0000000000000000000000000000008C
:1055200000C07FC07FC001C001C001C001C001C078
:1055300001C001C001C001C001C001C001C001C063
:1055400001C001C001C001C001C001C001C001C053
:1055500001C001C001C07FC07F000000000000004A
:1055600000000000001C001C0038003800380070EB
:10557000007000E000E000E000C001C00180038096
:1055800003800300070007000E000E000E001C0041
:105590001C003800380038007000000000000000D7
:1055A00000FE03FE038003800380038003800380EA
:1055B00003800380038003800380038003800380D3
:1055C00003800380038003800380038003800380C3
:1055D0000380038003FE03FE03000000000000C000
:1055E00003E007F00F781E383C00000000000000C8
:1055F00000000000000000000000000000000000AB
:10560000000000000000000000000000000000009A
:10561000000000000000000000000000000000008A
:10562000000000000000000000000000000000007A
:10563000000000000000000000000000000000006A
:10564000000000000000000000000000000000005A
:10565000000000000000000000FFFF00000000F05C
:1056600001E003C00380070007000E0000000000F7
:10567000000000000000000000000000000000002A
:10568000000000000000000000000000000000001A
:10569000000000000000000000000000000000000A
:1056A00000000000000000000000000000000000FA
:1056B0000000000000E007F01FF83E3C383C3800D6
:1056C0003CE03FF83F3C381C381E3C1E3EFC3FF897
:1056D0007FE000000000000000000000000000006B
:1056E000000000000000001E001E001E001E001E24
:1056F000001E001E00DE0FFE1F7E3E3E3C3E781E5A
:10570000781E781E781E781E783E783E3CFE3FFE5E
:105710001F800300000000000000000000000000E7
:105720000000000000000000000000000000000079
:105730000000000000C007F01FF83E3C781C781EF7
:10574000001E001E001E001E783C783C7CF83FF0D6
:105750001F800300000000000000000000000000A7
:105760000000000000000000780078007800780059
:105770007800780078E07BF87F7C7E3C7C1E781E89
:10578000781E781E781E781E781C783C7CF87FF096
:105790007FC00100000000000000000000000000C9
:1057A00000000000000000000000000000000000F9
:1057B0000000000000C007F01F783E3C781C78FE17
:1057C0007FFE7F1E001E001E003C783C78F83FF0F4
:1057D0001F80070000000000000000000000000023
:1057E00000000000000000007F807FC063C001C097
:1057F00001C001C001FE3FFE3FC001C001C001C0A9
:1058000001C001C001C001C001C001C001C001C090
:105810000100000000000000000000000000000087
:105820000000000000000000000000000000000078
:105830000000000000E0F3F0FF781E381C3C1C3C28
:105840001C381C781EF00FFC031C007C00F83FF88D
:105850007F1C701E701E78FC3FF00F0000000000DF
:10586000000000000000001C001C001C001C001CAC
:10587000001C001C009C1FDC3FFC7C7C783C783CBE
:10588000781C781C781C781C781C781C781C781C78
:105890007800000000000000000000000000000090
:1058A000000000000000008003C007C003000000EB
:1058B0000000000000C003C003C003C003C003C059
:1058C00003C003C003C003C003C003C003C003C0C0
:1058D00003000000000000000000000000000000C5
:1058E00000000000000000001E001E001E0000005E
:1058F0000000000000001E001E001E001E001E0012
:105900001E001E001E001E001E001E001E001E00A7
:105910001E000E000E180FF807F80300000000002C
:10592000000000000000001C001C001C001C001CEB
:10593000001C001C001C7C1C3E1C1F9C0FDC07FC78
:1059400003FC077C073C0F1C1E1C1E1C3C1C381C47
:1059500078000000000000000000000000000000CF
:1059600000000000000000800380038003800380AB
:10597000038003800380038003800380038003800F
:1059800003800380038003800380038003800380FF
:105990000300000000000000000000000000000004
:1059A00000000000000000000000000000000000F7
:1059B0000000000000EF79FFFFFFFF9FE78FE38FFC
:1059C000E38FE38FE38FE38FE38FE38FE38FE38F47
:1059D000E3000000000000000000000000000000E4
:1059E00000000000000000000000000000000000B7
:1059F00000000000009C1FDC3FFC7C7C783C783C75
:105A0000781C781C781C781C781C781C781C781CF6
:105A1000780000000000000000000000000000000E
:105A20000000000000000000000000000000000076
:105A30000000000000C007F01FF83E3C7C1C781EF0
:105A4000701EF01EF01EF01E703C787C7CF83FF05B
:105A50001F800300000000000000000000000000A4
:105A60000000000000000000000000000000000036
:105A70000000000000DE07FE1FFE3E3E3C3E781E9A
:105A8000781E781E781E781E783E783E3CFE3FFEDB
:105A90001FDE071E001E001E001E0000000000008A
:105AA00000000000000000000000000000000000F6
:105AB0000000000000E07BF87FFC7E3C7C1E781E2E
:105AC000781E781E781E781E781C783C7CF87FF053
:105AD0007FE07B007800780078007800000000000C
